:04000000B7EF3FF027
:107F6E000001BAEF3FF00F0EC16E1F0E956E000EA0
:107F7E00936E8350FE0B0109836E8350010BE8064E
:107F8E00D8A402D0818001D081908350FD0B0209CC
:107F9E00836E8330010BE806D8A402D0818201D013
:107FAE0081928350FB0B0409836E8330E832010B00
:107FBE00E806D8A402D0818401D081948350F70BB7
:107FCE000809836E8330E832E832010BE806D8A444
:107FDE0002D0818601D081968350EF0B1009836EFB
:107FEE008338010BE806D8A402D08188C2D78198C5
:027FFE00C0D7EA
:020000040020DA
:08000000FFFFFFFFFFFFFFFF00
:020000040030CA
:0E000000240E3F1EFF8181FF0FC00FE00F4056
:00000001FF
