:04000000C7EF3FF017
:107F8E000001E5EF3FF008D0100E056E940EE82EBE
:107F9E00FED7052EFCD700D0FF0E0126FF0E0222C3
:107FAE00FF0E0322FF0E04220128EEE10228ECE16F
:107FBE000328EAE10428D8B41200E6D70F0EC16EEA
:107FCE00000E956E8380F40E016E010E026E000E91
:107FDE00036E000E046ECAEC3FF08390F40E016E39
:107FEE00010E026E000E036E000E046ECAEC3FF020
:027FFE00E9D7C1
:020000040020DA
:08000000FFFFFFFFFFFFFFFF00
:020000040030CA
:0E000000240E3F1EFF8181FF0FC00FE00F4056
:00000001FF
